:100000000C94BB000C94E3000C94E3000C94E3000C
:100010000C94E3000C94E3000C94E3000C94E300D4
:100020000C94E3000C94E3000C94E3000C94E300C4
:100030000C94E3000C94E3000C94E3000C94E300B4
:100040000C946A040C94E3000C94DA040C94B40449
:100050000C94E3000C94E3000C94E3000C94E30094
:100060000C940C050C94E30045085A085A085908EA
:100070005A0837085A085A085A0839085A085A08B4
:100080004C08570855085A085A085A08530830357A
:100090003A33373A3434004D6179203233203230EC
:1000A00031390000000008000201000003040700CD
:1000B000000000000000007E306D79335B5F707FD0
:1000C0007B771F0D3D4F470000000000000000003F
:1000D0000000000000000000000000000000000020
:1000E000000000800180007E306D79335B5F707F9F
:1000F0007B00000000000000771F0D3D4F470037D8
:100100000000000E0000006700000000000000007A
:100110000000000000000800771F0D3D4F4700372A
:100120000000000E00151D67000000000000000028
:100130000000000000000000000000250028002B47
:100140000000000000240027002A00040404040426
:100150000404040202020202020303030303030174
:10016000020408102040800102040810200102044B
:1001700008102000590611241FBECFEFD8E0DEBFC3
:10018000CDBF11E0A0E0B1E0E2E7F3E102C00590ED
:100190000D92AC33B107D9F722E0ACE3B1E001C076
:1001A0001D92AA3FB207E1F710E0CBEBD0E004C00C
:1001B0002197FE010E94AC09CA3BD107C9F70E94F2
:1001C00021070C94B7090C940000282F3091F801F6
:1001D000313208F04AC08091D4018111FCCF909156
:1001E000F70142E04093D4012093D3012FEF2093F5
:1001F000D2011092D1013093D001E7EDF1E0A0EBF4
:10020000B1E020E0321721F041914D932F5FFACFFA
:100210001092AF012091AF01990F922B9093AF01F3
:100220009091AE01913061F41092AE019091AF01C6
:100230009093BB009091BC0093FDF8CF95EC01C06A
:1002400095EE9093BC009091D4019230E1F390919F
:10025000D2019F3F79F08091D201803241F08091AC
:10026000D201803331F084E005C081E003C082E038
:1002700001C083E01092D6011092F8011092D501CE
:10028000089590E0FC01ED55FF4F2491FC01E15AE7
:10029000FE4F3491FC01E55BFE4FE491EE2309F43F
:1002A0003CC0222339F1233091F038F42130A9F0F9
:1002B000223001F584B58F7D12C0273091F02830AF
:1002C000A1F02430B9F4809180008F7D03C080912B
:1002D00080008F77809380000DC084B58F7784BDB8
:1002E00009C08091B0008F7703C08091B0008F7DEE
:1002F0008093B000F0E0EE0FFF1FE95CFE4FA59188
:10030000B4919FB7F894611104C08C913095382353
:1003100002C0EC913E2B3C939FBF08950895089531
:10032000CF92DF92EF92FF920F931F93CF93DF93C1
:100330006C017A018B01C0E0D0E0CE15DF0581F0C1
:10034000D8016D918D01D601ED91FC910190F08164
:10035000E02DC6010995892B11F02196EECF7E0183
:10036000C701DF91CF911F910F91FF90EF90DF9028
:10037000CF900895FC01538D448D252F30E0842FBC
:1003800090E0821B930B541710F0CF9608950197BD
:100390000895FC01918D828D981761F0828DDF01A7
:1003A000A80FB11D5D968C91928D9F5F9F73928F68
:1003B00090E008958FEF9FEF0895FC01918D828D5D
:1003C000981731F0828DE80FF11D858D90E008952A
:1003D0008FEF9FEF0895FC01918D228D892F90E082
:1003E000805C9F4F821B91098F739927089589EF35
:1003F00091E00E94EB0121E0892B09F420E0822F9B
:100400000895FC01848DDF01A80FB11DA35ABF4FD1
:100410002C91848D90E001968F739927848FA68903
:10042000B7892C93A089B1898C91837080648C9357
:10043000938D848D981306C00288F389E02D808106
:100440008F7D80830895EF92FF920F931F93CF9338
:10045000DF93EC0181E0888F9B8D8C8D981305C014
:10046000E889F989808185FD26C0F62E0B8D10E084
:100470000F5F1F4F0F731127E02E8C8DE8120CC0F9
:100480000FB607FCFACFE889F989808185FFF5CF9F
:10049000CE010E940102F1CF8B8DFE01E80FF11D0C
:1004A000E35AFF4FF0829FB7F8940B8FEA89FB89DC
:1004B000808180620AC09FB7F894EE89FF896083CB
:1004C000E889F98980818370806480839FBF81E09F
:1004D00090E0DF91CF911F910F91FF90EF900895E1
:1004E000CF93DF93EC01888D8823C9F0EA89FB89DB
:1004F000808185FD05C0A889B9898C9186FD0FC0D2
:100500000FB607FCF5CF808185FFF2CFA889B989A6
:100510008C9185FFEDCFCE010E940102E7CFDF91E4
:10052000CF91089580E090E0892B29F00E94F70197
:1005300081110C940000089585ED8093BC0080919A
:10054000BC0084FDFCCF1092D401089540915C0161
:10055000262F30E0240F311D21323105DCF42091AB
:10056000D4012430C9F4FC0180E090E0861758F4EF
:1005700030915C012191DC01A45CBE4FA30FB11D41
:100580002C930196F3CF80915C01680F60935C011E
:1005900080E0089581E0089582E008950895E09153
:1005A0008D0180918C01E81730F4F0E0E257FE4FA6
:1005B000808190E008958FEF9FEF089590918D01D5
:1005C00080918C01981750F4E92FF0E0E257FE4F2C
:1005D000208130E09F5F90938D0102C02FEF3FEFAD
:1005E000C901089580918C0190E020918D01821BBA
:1005F00091090895CF92DF92EF92FF920F931F938C
:10060000CF93DF937C01CB018A012091D501222376
:1006100089F0EB016B01C40ED51ECC15DD0569F028
:100620006991D701ED91FC910190F081E02DC70116
:100630000995F3CF642F0E94A602C801DF91CF91E4
:100640001F910F91FF90EF90DF90CF900895CF937F
:10065000DF931F92CDB7DEB769832091D5012223A6
:10066000D1F02091F801203240F021E030E0FC018F
:100670003383228380E090E015C08091D601E82F7B
:10068000F0E0E952FE4F998190838F5F8093D6010D
:100690008093F80105C061E0CE0101960E94A60298
:1006A00081E090E00F90DF91CF910895089580E070
:1006B00090E00895AF92BF92CF92DF92EF92FF92B7
:1006C0000F931F93CF93DF9300D0CDB7DEB769832D
:1006D0004A83880F991F0091F8021091F902000FC8
:1006E000111FE2EAF2E09F01225A3240201731073F
:1006F00014F41192F8CF2981FC01EE55FD4F2183AE
:100700008A81808360E08091F6020E944101101688
:10071000110634F501501109F801EE55FD4FC08066
:10072000B090F402A090F20287E0E82EF12CD12CD8
:10073000B6010E2C02C0759567950A94E2F76170B8
:100740008A2D0E94410161E08B2D0E94410160E0F1
:100750008B2D0E94410181E0E81AF10848F7D7CFBC
:1007600061E08091F6020F900F90DF91CF911F9181
:100770000F91FF90EF90DF90CF90BF90AF900C94CF
:100780004101EF92FF920F931F93CF937C018C0155
:1007900083E0000F111F8A95E1F70E541D4FC1E051
:1007A000F80111928F0140E06C2FC7010E945A039B
:1007B000CF5FC930A9F7CF911F910F91FF90EF90B4
:1007C00008952091F8023091F90212161306A4F44C
:1007D0008830910588F4603178F4E62FF0E0E95430
:1007E000FF4F4491FC01EE55FD4F408B61E0680FD7
:1007F00080E090E00C945A0308959091D4019111F7
:10080000FCCF982F813208F090E281E08093D401F0
:100810008093D3012FEF2093D2011092D101290FA1
:100820002093D0018093AF018091AF01806D8093C0
:10083000AF018091AE01813061F41092AE018091E0
:10084000AF018093BB008091BC0083FDF8CF85ECA5
:1008500001C085EE8093BC008091D4018130E1F32A
:100860008091D101891710F49091D101E0EBF1E072
:10087000AEE8B1E080E0891721F021912D938F5FE0
:10088000FACF10928D0180938C010895CF93DF935E
:10089000009779F0FC0101900020E9F73197AF0152
:1008A000481B590BBC0189EF91E00E949001EC01BB
:1008B00002C0C0E0D0E042E050E064E271E089EFC5
:1008C00091E00E9490018C0F9D1FDF91CF910895C0
:1008D0000E94B2091F920F920FB60F9211242F930C
:1008E0003F938F939F93AF93BF9380918801909193
:1008F0008901A0918A01B0918B013091870123E099
:10090000230F2D3720F40196A11DB11D05C026E847
:10091000230F0296A11DB11D2093870180938801AA
:1009200090938901A0938A01B0938B0180918301F8
:1009300090918401A0918501B09186010196A11D3D
:10094000B11D8093830190938401A0938501B0939E
:100950008601BF91AF919F918F913F912F910F9001
:100960000FBE0F901F9018951F920F920FB60F9207
:1009700011242F933F934F935F936F937F938F93A4
:100980009F93AF93BF93EF93FF9389EF91E00E9402
:100990000102FF91EF91BF91AF919F918F917F9154
:1009A0006F915F914F913F912F910F900FBE0F90DC
:1009B0001F9018951F920F920FB60F9211242F932C
:1009C0008F939F93EF93FF93E0910902F0910A02B6
:1009D0008081E0910F02F091100282FD12C090819F
:1009E000809112028F5F8F7320911302821751F052
:1009F000E0911202F0E0E750FE4F958F80931202D3
:100A000001C08081FF91EF919F918F912F910F9065
:100A10000FBE0F901F9018951F920F920FB60F9256
:100A200011242F933F934F935F936F937F938F93F3
:100A30009F93AF93BF93EF93FF938091B900887F0B
:100A4000803609F49CC068F5883209F45BC090F4E4
:100A5000803109F454C038F4882309F4F6C0883092
:100A600009F44DC0F6C0883109F44CC0803209F455
:100A70005DC0EFC0803409F468C048F4803309F4E5
:100A800055C0883309F0E5C08093D201D8C08035C5
:100A900009F44FC0883509F45DC0883409F0D9C025
:100AA000D6C0883909F4C7C0A8F4883709F467C0EC
:100AB00038F4883609F463C0803709F460C0C9C0CF
:100AC000883809F4B8C0803909F45FC0803809F06B
:100AD000C0C05BC0803B09F486C038F4803A09F49A
:100AE00066C0883A09F47FC0B4C0803C09F4A7C04E
:100AF000883C09F4A4C0883B09F48AC0AAC080914C
:100B0000AF0110C09091D1018091D001981770F57C
:100B1000E091D10181E08E0F8093D101F0E0E055AA
:100B2000FE4F80818093BB0085EC86C08093D2010C
:100B30008EC0E091D10181E08E0F8093D101809130
:100B4000BB00F0E0E055FE4F80839091D101809191
:100B5000D0016EC0E091D10181E08E0F8093D10170
:100B60008091BB00F0E0E055FE4F80838091D3017F
:100B700081116DC081E08093AE0184EA61C083E0A1
:100B80008093D40110927E01CFCF80917E0180327C
:100B900008F051C0E0917E0181E08E0F80937E01CC
:100BA0008091BB00F0E0E25AFE4F8083BDCF85EC20
:100BB0008093BC001092D40180917E01803230F489
:100BC000E0917E01F0E0E25AFE4F108260917E01DA
:100BD00070E0E0917F01F09180018EE591E0099550
:100BE00010927E0136C084E08093D40110925D01A2
:100BF00010925C01E0918101F09182010995809150
:100C00005C01811105C081E080935C0110923C0180
:100C1000E0915D0181E08E0F80935D01F0E0E45C86
:100C2000FE4F80818093BB0090915D0180915C01BB
:100C3000981708F479CF85E88093BC000AC085EC4A
:100C40008093BC001092D40104C01092D2010E9483
:100C50009C02FF91EF91BF91AF919F918F917F91F6
:100C60006F915F914F913F912F910F900FBE0F9019
:100C70001F90189590E0FC01E15AFE4F2491FC0171
:100C8000E55BFE4F8491882399F090E0880F991FCF
:100C9000FC01EF5BFE4FA591B491FC01E95CFE4FB6
:100CA000859194918FB7F894EC91E22BEC938FBFE0
:100CB0000895CF93DF931092FC011092FB0188EE10
:100CC00093E0A0E0B0E08093FD019093FE01A0933B
:100CD000FF01B093000224E031E03093FA01209349
:100CE000F90125EC30E0309306022093050224EC54
:100CF00030E0309308022093070220EC30E030937C
:100D00000A022093090221EC30E030930C02209378
:100D10000B0222EC30E030930E0220930D0226EC01
:100D200030E03093100220930F02109212021092C2
:100D3000130210921402109215021092990210924E
:100D4000980280939A0290939B02A0939C02B09386
:100D50009D0286E191E09093970280939602CCE009
:100D6000D0E0D093F302C093F2028BE090E0909336
:100D7000F5028093F4028AE090E09093F70280936A
:100D8000F60281E090E09093F9028093F8028CE003
:100D90000E943A068091F4020E943A068091F6027F
:100DA0000E943A0661E08091F6020E944101D093D0
:100DB000F302C093F202E2EBF2E082EF92E01192D2
:100DC0008E179F07E1F7C0E0D0E08091F802909184
:100DD000F902C817D90794F540E06FE0CE010E94F0
:100DE0005A03D7FD0CC08091F8029091F902C81700
:100DF000D9072CF447E06BE0CE010E945A0340E093
:100E000069E0CE010E945A03D7FD16C08091F80216
:100E10009091F902C817D9071CF4CE010E94C103B2
:100E20008091F8029091F902C817D9072CF440E09C
:100E30006CE0CE010E945A032196C7CFDF91CF917B
:100E40000895CF93DF93CDB7DEB72B970FB6F89405
:100E5000DEBF0FBECDBF789484B5826084BD84B5FB
:100E6000816084BD85B5826085BD85B5816085BDA5
:100E700080916E00816080936E001092810080915D
:100E800081008260809381008091810081608093E5
:100E90008100809180008160809380008091B1000A
:100EA00084608093B1008091B00081608093B00035
:100EB00080917A00846080937A0080917A008260C9
:100EC00080937A0080917A00816080937A0080918B
:100ED0007A00806880937A001092C1008091F802B5
:100EE0009091F9021816190634F441E06CE080E0A4
:100EF00090E00E945A038091F8029091F90218162E
:100F0000190634F446E06AE080E090E00E945A035B
:100F10008091F8029091F9021816190624F480E0E5
:100F200090E00E94C103E0910902F0910A0282E080
:100F30008083E0910502F09106021082E0910702A1
:100F4000F09108028FEC808310921102E0910D0263
:100F5000F0910E0286E08083E0910B02F0910C028A
:100F6000808180618083E0910B02F0910C0280818E
:100F700088608083E0910B02F0910C028081806890
:100F80008083E0910B02F0910C0280818F7D808341
:100F900010928D0110928C011092D6011092F801DE
:100FA0001092D40101E00093D3011092AE0161E0F0
:100FB00082E10E94410161E083E10E944101809150
:100FC000B9008E7F8093B9008091B9008D7F8093A6
:100FD000B90088E48093B80085E48093BC008EE873
:100FE00091E090938201809381018FE891E090934A
:100FF000800180937F010093D50188E68093F701FB
:101000001092D6011092F80160E086E992E00E9409
:10101000270381E00E94E50081E090E00E94FD034B
:1010200086E992E00E94DE0287FFCBC087E291E072
:101030000E9446044BE050E067E970E0CE01019663
:101040000E949709CE010A960E948A09082FE98119
:101050004E2FEE0F550B660B770BFA01E154F10999
:10106000E331F10538F5EC5CFF4F0C94AC0912E06C
:1010700021C08A81813629F08B818E3621F017E0DC
:1010800019C011E017C016E015C08B81823711F02E
:1010900018E010C014E00EC08B81823711F015E00B
:1010A00009C013E007C019E005C01AE003C01BE047
:1010B00001C01CE0CE0105960E948A09E82E48E096
:1010C00050E06EE870E0CE0101960E949709CE01D3
:1010D00001960E948A09D82ECE0104960E948A09A0
:1010E000C82ECE0107960E948A09B82E81E080930F
:1010F000D50188E68093F7011092D6011092F8018D
:1011000060E086E992E00E942703EAE0FE2E8B2D44
:101110006F2D0E94A009682F660F860F880F682F19
:101120006B0D86E992E00E9427038C2D6F2D0E94A3
:10113000A009682F660F860F880F682F6C0D86E94F
:1011400092E00E9427038D2D6F2D0E94A009682F29
:10115000660F860F880F682F6D0D86E992E00E945A
:10116000270360E086E992E00E9427038E2D6F2D11
:101170000E94A009682F660F860F880F682F6E0DDA
:1011800086E992E00E942703812F6F2D0E94A0091B
:10119000682F660F680F660F610F86E992E00E9464
:1011A0002703802F6F2D0E94A009682F660F680FFC
:1011B000660F600F86E992E00E94270381E00E949B
:1011C000E500EE24E39458E6B52E6AEFF62E0AE029
:1011D00074EEC72E70E0D72EE092D501B092F701E1
:1011E0001092D6011092F80160E086E992E00E9428
:1011F000270381E00E94E50087E090E00E94FD0364
:1012000086E992E00E94DE028F77982F92959F7078
:10121000182F9F9D100D112486E992E00E94DE0296
:101220009C01332794E0359527959A95E1F7982E00
:10123000F29E900C112486E992E00E94DE029C014D
:10124000332744E0359527954A95E1F7A82EF29E7D
:10125000A00C112486E992E00E94DE0286E992E069
:101260000E94DE0286E992E00E94DE0286E992E0B8
:101270000E94DE02812F602F0E94A009182F692F83
:1012800087E090E00E94E103612F86E090E00E94F9
:10129000E1038091F8029091F902181619064CF4B6
:1012A000F60144914093B70266E080E090E00E942E
:1012B0005A03892D602F0E94A009182F692F84E0FE
:1012C00090E00E94E103612F83E090E00E94E1033F
:1012D0008091F8029091F902181619064CF4F60163
:1012E00044914093B40263E080E090E00E945A038E
:1012F0008A2D602F0E94A009182F692F81E090E0AD
:101300000E94E103612F80E090E00E94E1030E94CF
:10131000920262CFFC01908190539A3008F090E0E5
:10132000818180532AE0929F800D11240895FB0152
:10133000DC0102C005900D9241505040D8F708954D
:10134000991B79E004C0991F961708F0961B881F17
:101350007A95C9F780950895EE0FFF1F0590F491D7
:10136000E02D099481E090E0F8940C94B709F8948A
:02137000FFCFAD
:101372000000000023029001BA017002EB01C901D2
:10138200DD01000000002703FA025703CE02F20239
:10139200DE02CF020D0A00525443206973204E4FE1
:0C13A200542072756E6E696E67210000A9
:00000001FF
