:100000000C9453000C947B000C947B000C947B00AC
:100010000C947B000C947B000C947B000C947B0074
:100020000C947B000C947B000C947B000C947B0064
:100030000C947B000C947B000C947B000C947B0054
:100040000C94DC010C947B000C944C020C94260262
:100050000C947B000C947B000C947B000C947B0034
:100060000C947B000C947B0000000000250028000D
:100070002B0000000000240027002A0004040404D0
:100080000404040402020202020203030303030342
:10009000010204081020408001020408102001021F
:1000A00004081020F90311241FBECFEFD8E0DEBFF3
:1000B000CDBF11E0A0E0B1E0EEE3FCE002C00590AE
:1000C0000D92A233B107D9F721E0A2E3B1E001C05C
:1000D0001D92A83DB207E1F710E0C3E5D0E004C0EF
:1000E0002197FE010E941206C235D107C9F70E946E
:1000F0007E020C941D060C940000CF92DF92EF92CA
:10010000FF920F931F93CF93DF936C017A018B01C2
:10011000C0E0D0E0CE15DF0589F0D8016D918D01EA
:10012000D601ED91FC910190F081E02DC601099579
:10013000892B11F47E0102C02196ECCFC701DF911B
:10014000CF911F910F91FF90EF90DF90CF90089586
:10015000089580E090E00895FC01538D448D252F93
:1001600030E0842F90E0821B930B541710F0CF9651
:10017000089501970895FC01918D828D981761F083
:10018000828DDF01A80FB11D5D968C91928D9F5FCE
:100190009F73928F90E008958FEF9FEF0895FC0179
:1001A000918D828D981731F0828DE80FF11D858D2C
:1001B00090E008958FEF9FEF0895FC01918D228DBF
:1001C000892F90E0805C9F4F821B91098F73992744
:1001D00008958BE391E00E94DD0021E0892B09F472
:1001E00020E0822F0895FC01848DDF01A80FB11D4E
:1001F000A35ABF4F2C91848D90E001968F7399275D
:10020000848FA689B7892C93A089B1898C91806449
:100210008C93938D848D981306C00288F389E02D0A
:1002200080818F7D80830895EF92FF920F931F93BB
:10023000CF93DF93EC0181E0888F9B8D8C8D981399
:1002400005C0E889F989808185FD24C0F62E0B8DD3
:1002500010E00F5F1F4F0F731127E02E8C8DE812F7
:100260000CC00FB607FCFACFE889F989808185FFB9
:10027000F5CFCE010E94F300F1CF8B8DFE01E80F88
:10028000F11DE35AFF4FF0820B8FEA89FB898081D1
:10029000806207C0EE89FF896083E889F9898081DF
:1002A0008064808381E090E0DF91CF911F910F9176
:1002B000FF90EF900895CF93DF93EC01888D882312
:1002C000C9F0EA89FB89808185FD05C0A889B989C3
:1002D0008C9186FD0FC00FB607FCF5CF808185FF9E
:1002E000F2CFA889B9898C9185FFEDCFCE010E940C
:1002F000F300E7CFDF91CF91089580E090E0892B64
:1003000029F00E94E90081110C94000008950097E3
:1003100069F0FC0101900020E9F73197AF01481B1B
:10032000590BBC018BE391E00C947D0080E090E0E0
:1003300008958F929F92AF92BF920F931F93CF9386
:10034000DF93CDB7DEB7A1970FB6F894DEBF0FBE2F
:10035000CDBF19A2423008F44AE08E010F5D1F4F55
:10036000842E912CA12CB12CA50194010E94F005A2
:10037000E62FB901CA0101501109EA3014F4E05D19
:1003800001C0E95CD801EC93232B242B252B61F7CA
:10039000C8010E948701A1960FB6F894DEBF0FBE78
:1003A000CDBFDF91CF911F910F91BF90AF909F90E4
:1003B0008F9008950E9418061F920F920FB60F9209
:1003C00011242F933F938F939F93AF93BF9380916B
:1003D000370190913801A0913901B0913A013091E3
:1003E000360123E0230F2D3720F40196A11DB11D06
:1003F00005C026E8230F0296A11DB11D20933601EA
:100400008093370190933801A0933901B0933A015A
:100410008091320190913301A0913401B091350166
:100420000196A11DB11D8093320190933301A093D9
:100430003401B0933501BF91AF919F918F913F915E
:100440002F910F900FBE0F901F9018951F920F9233
:100450000FB60F9211242F933F934F935F936F9397
:100460007F938F939F93AF93BF93EF93FF938BE310
:1004700091E00E94F300FF91EF91BF91AF919F91A6
:100480008F917F916F915F914F913F912F910F903D
:100490000FBE0F901F9018951F920F920FB60F92DC
:1004A00011242F938F939F93EF93FF93E0914B0130
:1004B000F0914C018081E0915101F091520182FD57
:1004C00012C09081809154018F5F8F7320915501EC
:1004D000821751F0E0915401F0E0E55CFE4F958FFA
:1004E0008093540101C08081FF91EF919F918F9182
:1004F0002F910F900FBE0F901F901895789484B590
:10050000826084BD84B5816084BD85B5826085BD0F
:1005100085B5816085BD80916E00816080936E009D
:10052000109281008091810082608093810080918F
:100530008100816080938100809180008160809340
:1005400080008091B10084608093B1008091B00000
:1005500081608093B00080917A00846080937A00FB
:1005600080917A00826080937A0080917A00816025
:1005700080937A0080917A00806880937A0010924C
:10058000C100E0914B01F0914C0182E08083E09149
:100590004701F09148011082E0914901F0914A0130
:1005A0008FEC808310925301E0914F01F091500144
:1005B00086E08083E0914D01F0914E018081806161
:1005C0008083E0914D01F0914E01808188608083AD
:1005D000E0914D01F0914E01808180688083E0912F
:1005E0004D01F0914E0180818F7D8083EEE9F0E036
:1005F0002491EAE8F0E084918823C1F090E0880F2C
:10060000991FFC01EE58FF4FC591D491FC01E859A8
:10061000FF4FA591B4919FB7F8948881E22FE095A0
:100620008E2388838C91E823EC939FBF10E482E1B2
:1006300091E00E9487018EE191E00E948701109372
:100640007C0080917A00806480937A0080917A00A7
:1006500086FDFCCFC091780080917900D0E0D82B46
:10066000BE010D2E000C880B990B0E94C9042AE0D4
:1006700038E240EA5BE30E947E056B017C014B019E
:100680005C01CE018F5D9E4F0E948701A7019601FC
:10069000C701B6010E94EB05882319F086E291E0BC
:1006A0001AC026013701E89477F82FEF3FEF4FE7A4
:1006B0005FE7C301B2010E94EB0581110FC02FEF6C
:1006C0003FEF4FE75FE7C301B2010E9493041816A2
:1006D0002CF48AE291E00E94870184C02FEF3FEF63
:1006E0004FE75FE4C701B6010E94790518161CF4B4
:1006F0008EE291E0F0CF2FEF3FEF4FE75FECC701C5
:10070000B6010E94930487FDF3CF20E030E0A901F9
:10071000C701B6010E94930487FF11C0E0913B011D
:10072000F0913C010190F081E02D6DE28BE391E0CE
:10073000099546015701B7FAB094B7F8B0942AE08A
:1007400037ED43EA5BE3C501B4010E9427044B0186
:100750005C010E9498046B017C010E94C7049B010C
:10076000AC01C501B4010E9426044B015C014AE0C2
:10077000C701B6010E949901E0913B01F0913C0153
:100780000190F081E02D6EE28BE391E0099520E08D
:1007900030E040E251E4C501B4010E947E054B0106
:1007A0005C010E9498046B01E12CF12C4AE0C70126
:1007B000B6010E949901C701B6010E94C7049B01BE
:1007C000AC01C501B4010E94260420E030E040E203
:1007D00051E40E947E050E94980480E090E04AE087
:1007E0000E9499018EE191E00E9487010E947D01A3
:1007F0001ECFEBE3F1E01382128288EE93E0A0E0DB
:10080000B0E084839583A683B78384E091E09183ED
:10081000808385EC90E09587848784EC90E09787CF
:10082000868780EC90E0918B808B81EC90E0938BBD
:10083000828B82EC90E0958B848B86EC90E0978B9A
:10084000868B118E128E138E148E08955058BB27EE
:10085000AA270E943E040C943F050E94310538F0FF
:100860000E94380520F039F49F3F19F426F40C94C7
:100870002E050EF4E095E7FB0C942805E92F0E9465
:10088000500558F3BA17620773078407950720F0DD
:1008900079F4A6F50C9472050EF4E0950B2EBA2FA0
:1008A000A02D0B01B90190010C01CA01A001112476
:1008B000FF27591B99F0593F50F4503E68F11A1622
:1008C000F040A22F232F342F4427585FF3CF4695B3
:1008D00037952795A795F0405395C9F77EF41F16D5
:1008E000BA0B620B730B840BBAF09150A1F0FF0F9F
:1008F000BB1F661F771F881FC2F70EC0BA0F621F8B
:10090000731F841F48F4879577956795B795F7957A
:100910009E3F08F0B0CF9395880F08F09927EE0F0F
:100920009795879508950E94040508F481E008953D
:100930000E94580588F09F5798F0B92F9927B75112
:10094000B0F0E1F0660F771F881F991F1AF0BA9573
:10095000C9F714C0B13091F00E947205B1E008955A
:100960000C947205672F782F8827B85F39F0B93F4C
:10097000CCF3869577956795B395D9F73EF4909526
:100980008095709561957F4F8F4F9F4F0895E894A4
:1009900009C097FB3EF490958095709561957F4FC7
:1009A0008F4F9F4F9923A9F0F92F96E9BB27939575
:1009B000F695879577956795B795F111F8CFFAF485
:1009C000BB0F11F460FF1BC06F5F7F4F8F4F9F4FB6
:1009D00016C0882311F096E911C0772321F09EE814
:1009E000872F762F05C0662371F096E8862F70E07A
:1009F00060E02AF09A95660F771F881FDAF7880F54
:100A00009695879597F90895990F0008550FAA0BA9
:100A1000E0E8FEEF16161706E807F907C0F0121611
:100A20001306E407F50798F0621B730B840B950B14
:100A300039F40A2661F0232B242B252B21F4089569
:100A40000A2609F4A140A6958FEF811D811D089506
:100A500097F99F6780E870E060E008959FEF80EC71
:100A6000089500240A941616170618060906089514
:100A700000240A9412161306140605060895092E7A
:100A80000394000C11F4882352F0BB0F40F4BF2BE9
:100A900011F460FF04C06F5F7F4F8F4F9F4F089529
:100AA00057FD9058440F551F59F05F3F71F047951F
:100AB000880F97FB991F61F09F3F79F08795089504
:100AC000121613061406551FF2CF4695F1DF08C023
:100AD000161617061806991FF1CF86957105610540
:100AE00008940895E894BB2766277727CB0197F9E8
:100AF00008950E94040508F48FEF08950E9491055F
:100B00000C943F050E94310538F00E94380520F012
:100B1000952311F00C9428050C942E0511240C94A7
:100B200073050E94500570F3959FC1F3950F50E037
:100B3000551F629FF001729FBB27F00DB11D639F8F
:100B4000AA27F00DB11DAA1F649F6627B00DA11D35
:100B5000661F829F2227B00DA11D621F739FB00DDB
:100B6000A11D621F839FA00D611D221F749F33274B
:100B7000A00D611D231F849F600D211D822F762FE4
:100B80006A2F11249F5750409AF0F1F088234AF0C1
:100B9000EE0FFF1FBB1F661F771F881F915050402D
:100BA000A9F79E3F510580F00C9428050C9473051D
:100BB0005F3FE4F3983ED4F3869577956795B795B4
:100BC000F795E7959F5FC1F7FE2B880F911D9695CE
:100BD000879597F908950E940405880B990B08954D
:100BE000A1E21A2EAA1BBB1BFD010DC0AA1FBB1F31
:100BF000EE1FFF1FA217B307E407F50720F0A21BA3
:100C0000B30BE40BF50B661F771F881F991F1A940F
:100C100069F760957095809590959B01AC01BD0139
:100C2000CF010895EE0FFF1F0590F491E02D099478
:0E0C300081E090E0F8940C941D06F894FFCF3C
:100C3E000000000014017D00AC005B01DD00BB0074
:100C4E00CF0048656C6C6F20576F726C64000D0A94
:100C5E000020202020006E616E00696E66006F76A7
:020C6E0066001E
:00000001FF
