:100000000C9462000C948A000C948A000C948A0070
:100010000C948A000C948A000C948A000C948A0038
:100020000C948A000C948A000C948A000C948A0028
:100030000C948A000C948A000C948A000C948A0018
:100040000C94FB020C948A000C94C9020C94A30239
:100050000C948A000C948A000C948A000C948A00F8
:100060000C948A000C948A000000000023002600F3
:10007000290000000000240027002A0000000000E2
:10008000250028002B0004040404040404040202D4
:100090000202020203030303030301020408102007
:1000A0004080010204081020010204081020000012
:1000B0000008000201000003040700000000000027
:1000C0000000BE0411241FBECFEFD8E0DEBFCDBFBD
:1000D00011E0A0E0B1E0E4E3FAE002C005900D9287
:1000E000A437B107D9F722E0A4E7B1E001C01D921F
:1000F000AD31B207E1F710E0C2E6D0E004C02197CD
:10010000FE010E940D05C136D107C9F70E944503C3
:100110000C9418050C940000CF92DF92EF92FF929E
:100120000F931F93CF93DF936C017A018B01C0E093
:10013000D0E0CE15DF0589F0D8016D918D01D60193
:10014000ED91FC910190F081E02DC6010995892B7C
:1001500011F47E0102C02196ECCFC701DF91CF914F
:100160001F910F91FF90EF90DF90CF900895089529
:1001700080E090E00895FC01538D448D252F30E000
:10018000842F90E0821B930B541710F0CF960895A4
:1001900001970895FC01918D828D981761F0828DF1
:1001A000DF01A80FB11D5D968C91928D9F5F9F73AB
:1001B000928F90E008958FEF9FEF0895FC01918D4D
:1001C000828D981731F0828DE80FF11D858D90E0BA
:1001D00008958FEF9FEF0895FC01918D228D892F57
:1001E00090E0805C9F4F821B91098F73992708953F
:1001F00080E891E00E94EC0021E0892B09F420E0E6
:10020000822F0895FC01848DDF01A80FB11DA35A30
:10021000BF4F2C91848D90E001968F739927848F26
:10022000A689B7892C93A089B1898C9180648C931D
:10023000938D848D981306C00288F389E02D808108
:100240008F7D80830895EF92FF920F931F93CF933A
:10025000DF93EC0181E0888F9B8D8C8D981305C016
:10026000E889F989808185FD24C0F62E0B8D10E088
:100270000F5F1F4F0F731127E02E8C8DE8120CC0FB
:100280000FB607FCFACFE889F989808185FFF5CFA1
:10029000CE010E940201F1CF8B8DFE01E80FF11D0E
:1002A000E35AFF4FF0820B8FEA89FB8980818062DD
:1002B00007C0EE89FF896083E889F98980818064BD
:1002C000808381E090E0DF91CF911F910F91FF90AB
:1002D000EF900895CF93DF93EC01888D8823C9F0C8
:1002E000EA89FB89808185FD05C0A889B9898C913F
:1002F00086FD0FC00FB607FCF5CF808185FFF2CFDA
:10030000A889B9898C9185FFEDCFCE010E940201A9
:10031000E7CFDF91CF91089580E090E0892B29F01D
:100320000E94F80081110C9400000895833081F040
:1003300028F4813099F08230A1F008958730A9F037
:100340008830B9F08430D1F4809180008F7D03C073
:10035000809180008F7780938000089584B58F7797
:1003600002C084B58F7D84BD08958091B0008F77E1
:1003700003C08091B0008F7D8093B0000895CF932B
:10038000DF93282F30E0F901E255FF4F8491F90106
:10039000E656FF4FD491F901EA57FF4FC491CC23A1
:1003A00091F081110E949601EC2FF0E0EE0FFF1FFB
:1003B000E859FF4FA591B491EC91ED2381E090E0D5
:1003C00021F480E002C080E090E0DF91CF910895B9
:1003D0003FB7F8948091790190917A01A0917B01C7
:1003E000B0917C0126B5A89B05C02F3F19F001965E
:1003F000A11DB11D3FBFBA2FA92F982F8827820FAB
:10040000911DA11DB11DBC01CD0142E0660F771FFA
:10041000881F991F4A95D1F70895009769F0FC014C
:1004200001900020E9F73197AF01481B590BBC013F
:1004300080E891E00C948C0080E090E008958F9229
:100440009F92AF92BF92CF92DF92EF92FF920F9363
:100450001F93CF93DF93CDB7DEB7A1970FB6F89474
:10046000DEBF0FBECDBF6C01990FEE08FF08F7FE8F
:1004700031C0E0918001F09181010190F081E02D87
:100480006DE280E891E009958C0122273327A901CC
:100490002C193D094E095F0919A2CE0181967C01F4
:1004A0009AE0892E912CA12CB12CCA01B901A50189
:1004B00094010E94EB04605DF70162937F012115B6
:1004C00031054105510589F7CF010E940D02080F42
:1004D000191F1EC0A701960119A28E010F5D1F4FA3
:1004E0008AE0C82ED12CE12CF12CCA01B901A70158
:1004F00096010E94EB04605DF80162938F01211563
:1005000031054105510589F7CF010E940D028C018B
:1005100082E191E00E940D02800F911FA1960FB61B
:10052000F894DEBF0FBECDBFDF91CF911F910F9129
:10053000FF90EF90DF90CF90BF90AF909F908F9003
:1005400008950E9413051F920F920FB60F92112467
:100550002F933F934F935F936F937F938F939F93CB
:10056000AF93BF93EF93FF9380E891E00E94020165
:10057000FF91EF91BF91AF919F918F917F916F917B
:100580005F914F913F912F910F900FBE0F901F9051
:1005900018951F920F920FB60F9211242F938F93DD
:1005A0009F93EF93FF93E0919001F09191018081EF
:1005B000E0919601F091970182FD12C090818091A7
:1005C00099018F5F8F7320919A01821751F0E0910A
:1005D0009901F0E0E058FE4F958F8093990101C09A
:1005E0008081FF91EF919F918F912F910F900FBE7E
:1005F0000F901F9018951F920F920FB60F92112413
:100600002F933F938F939F93AF93BF9380917501E7
:1006100090917601A0917701B091780130917401A9
:1006200023E0230F2D3720F40196A11DB11D05C035
:1006300026E8230F0296A11DB11D2093740180931B
:10064000750190937601A0937701B0937801809122
:10065000790190917A01A0917B01B0917C01019682
:10066000A11DB11D8093790190937A01A0937B0124
:10067000B0937C01BF91AF919F918F913F912F914A
:100680000F900FBE0F901F901895789484B58260DC
:1006900084BD84B5816084BD85B5826085BD85B526
:1006A000816085BD80916E00816080936E001092A4
:1006B000810080918100826080938100809181001F
:1006C00081608093810080918000816080938000B0
:1006D0008091B10084608093B1008091B00081600E
:1006E0008093B00080917A00846080937A0080913A
:1006F0007A00826080937A0080917A008160809392
:100700007A0080917A00806880937A001092C1000C
:10071000E0919001F091910182E08083E0918C0161
:10072000F0918D011082E0918E01F0918F018FEC9C
:10073000808310929801E0919401F091950186E0F8
:100740008083E0919201F0919301808180618083A8
:10075000E0919201F0919301808188608083E09123
:100760009201F0919301808180688083E0919201F1
:10077000F091930180818F7D8083E8EAF0E02491FD
:10078000E4E9F0E084918823C1F090E0880F991F9C
:10079000FC01EE58FF4FC591D491FC01E458FF4F86
:1007A000A591B4919FB7F8948881E22FE0958E23AC
:1007B00088838C91E823EC939FBFC5EAD0E0FE01CB
:1007C000249101E910E0F8018491882399F090E0E8
:1007D000880F991FFC01EE58FF4FA591B4918458E2
:1007E0009F4FFC01459154918FB7F8949C91292B10
:1007F0002C938FBF3324339449EBE42E40E0F42E46
:1008000085E191E00E940D0280917F0190E00E94BD
:100810001F0282E291E00E940D0280917E0190E031
:100820000E941F02D0907F018EE00E94BF0121E054
:10083000892B09F420E0D21669F10E94E8014B01EE
:100840005C0135E0432E512C612C712C0E94E80193
:10085000DC01CB0188199909AA09BB09883E93409C
:10086000A105B10558F0F1E04F1A5108610871086F
:1008700028EE820E23E0921EA11CB11C41145104EB
:100880006104710419F78EE00E94BF0121E0892BF9
:1008900009F420E020937E0182E391E00E940D02A2
:1008A00080917E0190E00E941F0280917F01811162
:1008B0001BC080917E018823B9F085E491E00E94FD
:1008C0000D0280917D0190E00E941F0280917D01C8
:1008D000832580937D018DE491E00E940D0280913B
:1008E0007D0190E00E941F0280917E0180937F0134
:1008F00088E591E00E940D0280917F0190E00E94C6
:100900001F0270907D01F7018491FE01C490F801EF
:10091000D490DD20B9F081110E9496018D2D90E0D8
:10092000880F991F84589F4FFC01A591B4918FB7F0
:10093000F8949C91711003C0C094C92201C0C92AC7
:10094000CC928FBF85E491E00E940D0280917D01E1
:1009500090E00E941F0288E691E00E940D0282E171
:1009600091E00E940D028FE691E00E940D0282E16B
:1009700091E00E940D020E948C0142CFE0E8F1E07C
:100980001382128288EE93E0A0E0B0E08483958326
:10099000A683B78384E091E09183808385EC90E027
:1009A0009587848784EC90E09787868780EC90E039
:1009B000918B808B81EC90E0938B828B82EC90E02A
:1009C000958B848B86EC90E0978B868B118E128EA4
:1009D000138E148E0895A1E21A2EAA1BBB1BFD01D3
:1009E0000DC0AA1FBB1FEE1FFF1FA217B307E4070E
:1009F000F50720F0A21BB30BE40BF50B661F771F66
:100A0000881F991F1A9469F7609570958095909545
:100A10009B01AC01BD01CF010895EE0FFF1F0590B2
:100A2000F491E02D099481E090E0F8940C9418057D
:040A3000F894FFCF68
:100A34000000000023018C00BB006A01EC00CA0026
:100A4400DE000D0A006C617374427574746F6E205D
:100A5400200063757272656E74427574746F6E20D3
:100A6400200063757272656E74427574746F6E4D96
:100A74004A442020006C65644F6E2020006C65643D
:100A84004F6E4D4A442020006C6173744275747437
:100A94006F6E414B4820200046494E495348000A96
:040AA4000A0A00003A
:00000001FF
