:100000000C94D5000C94FD000C94FD000C94FD00A4
:100010000C94FD000C94FD000C94FD000C94FD006C
:100020000C94FD000C94FD000C94FD000C94FD005C
:100030000C94FD000C94FD000C94FD000C94FD004C
:100040000C948D060C94FD000C94FD000C94FD00A6
:100050000C94FD000C94FD000C94FD000C94FD002C
:100060000C94FD000C94FD000000FF0080808000D7
:10007000FF000000000000000000FF008080800002
:10008000FF000000000000000000FF000000FF0073
:100090008080800080808000FF000000FF00000062
:1000A0000000000000000000AB0055007C00840050
:1000B0004B00B5001B00E5000017E8000047B80042
:1000C0000077AB0000ABAB000055AB000022DD00B9
:1000D0000E00F2003E00C20071008F00A1005F0020
:1000E000D0002F00F9070000FF0000008B00000087
:1000F0008B0000008B0000008B0000008B000000D4
:100100008B0000008B000000FF0000008B0000004F
:10011000EBCE8700EBCE8700E6D8AD00FFFFFF00F7
:10012000E6D8AD00EBCE87000000FF000000000025
:100130000055AB000000000000ABAB000000000069
:1001400000FF00000000000055AB000000000000B0
:10015000FF00000000000000AB00550000000000A0
:100160005500AB00000000000000FF00002AD50091
:100170000055AB00007FAB0000ABAB0000D55600D4
:1001800000FF00002AD5000055AB0000AA56000071
:10019000FF000000D5002A00AB00550081007F0061
:1001A0005500AB002B00D5002D0911241FBECFEF49
:1001B000D8E0DEBFCDBF11E0A0E0B1E0EAE8F3E1B6
:1001C00002C005900D92A632B107D9F722E0A6E24F
:1001D000B1E001C01D92AE32B207E1F710E0C5ED0B
:1001E000D0E004C02197FE010E94A909C43DD107B7
:1001F000C9F70E94D7060C94C3090C94000020E3B1
:1002000030E04EEF51E0FC01DA0120FF05C002C0F2
:1002100001900D9201900D922250D0F73040C0F71E
:10022000CA010895AEEFB1E0FC0145915591659189
:1002300074916C9311965C93119712964C9312974C
:100240000496139622E0AE32B20771F78EEF91E07A
:100250000895FB01DC016C9112967C91962F990F09
:10026000990F990F35E5292F239F020E20E0211DBC
:100270001124822F562F5074462F407267FD47C0BD
:10028000511133C0411105C0922F9095892F90E0F4
:1002900004C025E5280F90E08BEA7F3F09F421C0D8
:1002A00030E0772321F0779F312D09F03F5F332332
:1002B00009F44EC0882331F0482F439F040E40E0DC
:1002C000411D842F222321F0239F020E20E0211DB7
:1002D000992331F0492F439F040E40E0411D942F94
:1002E0001124808321839283089541110BC0392FFB
:1002F0002AEA329F030E30E0311D11249BEA931B42
:10030000280FC4CF90E02095982F80E0C6CF5111E0
:1003100012C041110CC0392F2AEA329F030E30E07F
:10032000311D11242BEA231B95E5930FEECF922F5D
:10033000909520E0B2CF411106C025E5280F9BEA39
:10034000981B822FF6CF2AEA280F90E0932FF8CF40
:1003500090E020E080E0C5CF80E991E008953FB7CC
:10036000F89480912D0190912E01A0912F01B091D0
:10037000300126B5A89B05C02F3F19F00196A11D9D
:10038000B11D3FBFBA2FA92F982F8827BC01CD01DF
:10039000620F711D811D911D42E0660F771F881F3E
:1003A000991F4A95D1F708958F929F92AF92BF926D
:1003B000CF92DF92EF92FF924B015C010E94AF015E
:1003C0006B017C010E94AF016C197D098E099F09A8
:1003D000683E734081059105A8F321E0821A9108D7
:1003E000A108B10888EEC80E83E0D81EE11CF11CFC
:1003F00081149104A104B10429F7FF90EF90DF90DC
:10040000CF90BF90AF909F908F9008952FB7F894A2
:100410006091290170912A0180912B0190912C010A
:100420002FBF08954F925F926F927F929F92AF92EB
:10043000BF92CF92DF92EF92FF920F931F93CF93D1
:10044000DF9300D01F92CDB7DEB7F82E8091EE017A
:100450009091EF01A091F001B091F101892B8A2BCD
:100460008B2BD9F00E94AF010091FA011091FB0192
:100470002091FC013091FD01601B710B820B930BED
:100480000091EE011091EF012091F0013091F10106
:100490006017710782079307C8F20E94AF0160934B
:1004A000FA017093FB018093FC019093FD01E091B0
:1004B000F601F091F701309759F04091F201509117
:1004C000F3016091F4017091F5018F2D0995F82EDB
:1004D0000091F8011091F9014F2C512C712C612CD5
:1004E0000115110509F45EC0D8011C96EC901C970B
:1004F0008091EC019091ED018436910510F41C96E9
:100500001C92D801ED91FC91A280B38019821A82CD
:100510001B82FF2089F1F8013696D12CC12C219144
:10052000222319F19280992001F130E050E040E05F
:100530002F5F3F4F4F4F5F4FC301B2010E943D09F4
:100540009B01AC01892D90E0B0E0A0E0BC01CD01A1
:100550006F5F7F4F8F4F9F4F0E943D09A1E0B0E03A
:10056000AC0FBD1FAC0DBD1D8C93BFEFCB1ADB0ACA
:1005700083E0C816D10499F6D8011D964D915C917F
:100580001E9712966D917C919E012F5F3F4FC8017F
:10059000F5010995D8011C96EC921C9714960D91C3
:1005A0001C919ECF8091E9019091EA018C010F5F2F
:1005B0001F4F1093EA010093E90149978CF10E94C3
:1005C00006029B01AC0188EE93E0089FB001099FF1
:1005D000700D189F700D1124072E000C880B990BBD
:1005E000C090E501D090E601E090E701F090E801CD
:1005F0002C193D094E095F090E9461093093ED01F4
:100600002093EC011092EA011092E9010E94060287
:100610006093E5017093E6018093E7019093E80110
:100620000F900F900F90DF91CF911F910F91FF903E
:10063000EF90DF90CF90BF90AF909F907F906F90A2
:100640005F904F9008950F931F93CF93DF93209166
:1006500027012F5F322F37703093270120FF2BC0E7
:1006600020E831FD2064347009F02062205FFC0135
:10067000EC01239600E011E06485662329F070E028
:10068000C8010E944D096F5F6187322F369F030EAC
:1006900030E0311D1124311110C01682662311F093
:1006A000615061873196EC17FD0731F7DF91CF91EB
:1006B0001F910F91089520E0D4CF31503683EECFB3
:1006C0004F925F926F927F928F92AF92BF92CF9232
:1006D000DF92EF920F931F93CF93DF933C01EB01D7
:1006E0000E94AF01F30127853089621B730B6A30CA
:1006F0007105B0F3F894E881F9817BB170626BB158
:100700006F7D6BB9CA848F812C2D281B822F2F837C
:10071000BF844A805B801D850C85DE841F5F0F5F70
:10072000D3949E813885A984EB844181D20120E055
:10073000C32F522F322F3181442788943111380F23
:1007400008F43FEF8195889410FD430F47958894F6
:1007500011FD430F4795889412FD430F47958894E8
:1007600013FD430F4795889414FD430F47958894D4
:1007700015FD430F4795889416FD430F47958894C0
:1007800017FD430F47958894232F1111242F8C0DAB
:10079000422F002C7BB900C000C047FF6BB93081ED
:1007A0002227889400C0002C6BB93111390F00C08A
:1007B000002C7BB900C000C046FF6BB908F43FEFC6
:1007C0009195889400C0002C6BB900FD230F00C0E8
:1007D000002C7BB900C000C045FF6BB927958894F9
:1007E00001FD230F00C0002C6BB92795889400C031
:1007F000002C7BB900C000C044FF6BB902FD230F81
:100800002795889400C0002C6BB903FD230F00C00E
:10081000002C7BB900C000C043FF6BB927958894BA
:1008200004FD230F00C0002C6BB92795889400C0ED
:10083000002C7BB900C000C042FF6BB905FD230F3F
:100840002795889400C0002C6BB906FD230F00C0CB
:10085000002C7BB900C000C041FF6BB9279588947C
:1008600007FD230F00C0002C6BB92795889400C0AA
:10087000002C7BB900C000C040FF6BB9432F0111B1
:10088000422F9A0D00C0002C6BB900C000C0002C94
:100890007BB900C000C047FF6BB932812227889422
:1008A00000C0002C6BB931113C0F00C0002C7BB98B
:1008B00000C000C046FF6BB908F43FEFEB0DF11D1F
:1008C00000C0002C6BB9D0FC230F00C0002C7BB9FA
:1008D00000C000C045FF6BB927958894D1FC230F59
:1008E00000C0002C6BB92795889400C0002C7BB900
:1008F00000C000C044FF6BB9D2FC230F2795889439
:1009000000C0002C6BB9D3FC230F00C0002C7BB9B6
:1009100000C000C043FF6BB927958894D4FC230F17
:1009200000C0002C6BB92795889400C0002C7BB9BF
:1009300000C000C042FF6BB9D5FC230F27958894F7
:1009400000C0002C6BB9D6FC230F00C0002C7BB973
:1009500000C000C041FF6BB927958894D7FC230FD6
:1009600000C0002C6BB92795889400C0002C7BB97F
:1009700000C000C040FF6BB9432FD110422FC1957A
:1009800000C0002C6BB9CE0D00C000C07BB900C008
:1009900000C047FF6BB931812227889400C0002C2A
:1009A0006BB93111380F00C0002C7BB900C000C0FA
:1009B00046FF6BB908F43FEF8195889400C0002C86
:1009C0006BB910FD230F00C0002C7BB900C000C024
:1009D00045FF6BB92795889411FD230F00C0002CAB
:1009E0006BB92795889400C0002C7BB900C000C06B
:1009F00044FF6BB912FD230F2795889400C0002C8B
:100A00006BB913FD230F00C0002C7BB900C000C0E0
:100A100043FF6BB92795889414FD230F00C0002C69
:100A20006BB92795889400C0002C7BB900C000C02A
:100A300042FF6BB915FD230F2795889400C0002C49
:100A40006BB916FD230F00C0002C7BB900C000C09D
:100A500041FF6BB92795889417FD230F00C0002C28
:100A60006BB92795889400C0002C7BB900C000C0EA
:100A700040FF6BB9432F1111422F8C0D00C0002C89
:100A80006BB9119709F086CE20EE31E0D2010E94B9
:100A90008309DC01CB01F4E0B695A795979587957E
:100AA000FA95D1F730E020E0B901EAE94E9E040C56
:100AB000611D5E9E600D711D1124650D711D860FF7
:100AC000971FA11DB11D893E43E09407A105B10503
:100AD00008F434C0885E9340A109B10942E0B6959C
:100AE000A795979587954A95D1F747E0849F080E7B
:100AF000211D949F200D311D1124290F311D60915E
:100B0000260170E0860F971F820F931F40912901E5
:100B100050912A0160912B0170912C01292F3327CC
:100B2000420F531F611D711D4093290150932A01EB
:100B300060932B0170932C018093260178940E947E
:100B4000AF01F301708B6787DF91CF911F910F91F8
:100B5000EF90DF90CF90BF90AF908F907F906F908D
:100B60005F904F900895559A08950F931F93CF93D8
:100B7000DF93CDB7DEB762970FB6F894DEBF0FBE36
:100B8000CDBF8C01F901DC011C968C917A836983BD
:100B90005C834B835E834D8390819D8791819E878B
:100BA00092819F878130F1F4CE0101960E94230348
:100BB00083E0888B1A8A198AD801ED91FC9104840C
:100BC000F585E02DBE016F5F7F4FC80109956296E4
:100BD0000FB6F894DEBF0FBECDBFDF91CF911F914E
:100BE0000F9108951C861B861A86198618861F8207
:100BF000DFCF0F931F93CF93DF93CDB7DEB762970D
:100C00000FB6F894DEBF0FBECDBF8C01F901DC0139
:100C10001C968C917A8369835C834B835E834D83BE
:100C200090819D8791819E8792819F878130E9F491
:100C3000CE0101960E942303188A1A8A198AD801C4
:100C4000ED91FC910484F585E02DBE016F5F7F4F2F
:100C5000C801099562960FB6F894DEBF0FBECDBFEE
:100C6000DF91CF911F910F9108951C861B861A86E4
:100C7000198618861F82E0CFEEEFF1E01082118214
:100C80001282339682E0EE32F807C1F78FEF80933D
:100C9000FE018093FF018093000280930A028093FB
:100CA0000B0280930C0280931602809317028093AC
:100CB00018028093220280932302809324020895D5
:100CC00090E080E00895FC01858596850895CF9396
:100CD000DF9300D000D000D0CDB7DEB7AB011C82CF
:100CE0001D821E82DC01ED91FC910190F081E02DCE
:100CF00019821A821B829E012F5F3F4FBE016C5FDB
:100D00007F4F099526960FB6F894DEBF0FBECDBF74
:100D1000DF91CF9108950E94BE091F920F920FB6E6
:100D20000F9211242F933F938F939F93AF93BF9371
:100D30008091290190912A01A0912B01B0912C0161
:100D40003091280123E0230F2D3758F50196A11D7E
:100D5000B11D209328018093290190932A01A0932B
:100D60002B01B0932C0180912D0190912E01A09127
:100D70002F01B09130010196A11DB11D80932D016D
:100D800090932E01A0932F01B0933001BF91AF91AA
:100D90009F918F913F912F910F900FBE0F901F90B9
:100DA000189526E8230F0296A11DB11DD2CFCF932F
:100DB000DF93CDB7DEB7E6970FB6F894DEBF0FBE70
:100DC000CDBF789484B5826084BD84B5816084BDD4
:100DD00085B5826085BD85B5816085BD80916E00D9
:100DE000816080936E00109281008091810082600A
:100DF0008093810080918100816080938100809147
:100E000080008160809380008091B1008460809335
:100E1000B1008091B00081608093B00080917A0031
:100E2000846080937A0080917A00826080937A0057
:100E300080917A00816080937A0080917A00806846
:100E400080937A001092C10068EB7BE080E090E034
:100E50000E94D40180914401811145C01092360155
:100E6000109235018FEF8093390180933A0180937E
:100E70003B0180933C0180933D0180933E0181E0E2
:100E800080933F011092410110924001109238016D
:100E9000109237018091F8019091F901892B31F47A
:100EA00083E391E09093F9018093F801E09131019F
:100EB000F0913201309721F083E391E095838483B0
:100EC00083E391E0909332018093310110924301CA
:100ED0001092420187E191E09093340180933301B5
:100EE00081E080934401559A8CE491E0909336011F
:100EF0008093350182E390E090934101809340011B
:100F00008091EE019091EF01A091F001B091F1017B
:100F1000843C29E09207A105B10520F484EC99E016
:100F2000A0E0B0E08093EE019093EF01A093F00178
:100F3000B093F1018FEF8093390180EB80933A01F8
:100F400080EF80933B0180E48093EB0188E691E0A1
:100F50000E94120181E090E09093E3018093E2010E
:100F60002CE3422E512C612C712CCE0101967C0178
:100F70006E0191E3C90ED11C01E010E095E0292E2D
:100F800098E0392E0E94060228EE33E040E050E05F
:100F90000E946109CA01B901A30192010E9461097D
:100FA00090910201691709F4BEC0609302016111BA
:100FB00005C088E691E00E94120162C06A3029F4FF
:100FC00088E291E00E941201AAC06F3019F488E211
:100FD00091E0F1CF643109F06AC080EC89832FEF92
:100FE0002A832B83BE016C5C7F4FC7010E942901BD
:100FF00080E689833FEF3A833B83B601C7010E94B5
:10100000290159A959834AA94A833BA93B835C8397
:101010004D833E831F82188619861A861B861C867E
:101020002CA92D879DA99E878EA98F87288B998BA8
:101030008A8B1B8A1C8A1D8A1E8A1F8A188E598FCA
:101040004A8F3B8F5C8F4D8F3E8F1F8E18A219A247
:101050001AA21BA21CA22DA39EA38FA328A799A707
:101060008AA71BA61CA61DA61EA61FA618AA7EEF51
:10107000E71671E0F70649F040F0C7010E94FF0053
:101080001093E3010093E2014EC080E390E02EE272
:1010900032E0F601D90180FF05C002C002900E9235
:1010A00002900E928250D0F79040C0F7E9CF69319C
:1010B00089F58EEFA82E81E0B82E209100013091A5
:1010C0000101229DC001239D900D329D900D1124A0
:1010D000875E994C829D9001839D300D929D300DCD
:1010E0001124275E394C3093010120930001230F16
:1010F00029833FEF3A83890F8B83B501C7010E9493
:10110000290173E0A70EB11C8EE292E08A159B05BF
:10111000A1F6B6CF6E3109F086C00E943C0610924F
:10112000E3011092E2014091E40131E0340F309389
:10113000E401ACE4B1E049568091E2019091E30111
:10114000632F62956F70232F2F70E62FEE0FE60F3F
:10115000F0E0E250FE4F222319F071E0892B09F4F0
:1011600070E0508191818281772309F42CC03396FD
:101170006F3011F4EEEFF1E02295207F622F609541
:10118000569F050E50E0511D7081729F070E70E052
:10119000711D570F792F769F070E70E0711D972FE5
:1011A0007181729F070E70E0711D970F782F769FE7
:1011B000070E70E0711D872F6281629F060E60E04E
:1011C000611D860F11245C9311969C9311971296C2
:1011D0008C9312973D5F13963413AECF8091EB0141
:1011E0000E9412020E9406024B015C0161E070E065
:1011F00080E090E00E94D4018091EB010E941202F5
:101200000E940602681979098A099B096A307105EA
:101210008105910558F380E090E0892B09F4B2CE66
:101220000E940000ABCE633219F40E943C0628CF26
:10123000683219F488EE90E0BECE6D3219F488EA77
:1012400090E0B9CE623319F488E690E0BBCE673304
:1012500009F069CF88E690E0AECEEBEEF1E08FEFDB
:10126000808312821182148613868FEF9FEFDC0138
:1012700087839087A187B2870895DB018F939F931F
:101280000E948A09BF91AF91A29F800D911DA39FDB
:10129000900DB29F900D1124089597FB072E16F420
:1012A000009407D077FD09D00E94950907FC05D06E
:1012B0003EF4909581959F4F0895709561957F4F6D
:1012C0000895A1E21A2EAA1BBB1BFD010DC0AA1F87
:1012D000BB1FEE1FFF1FA217B307E407F50720F09F
:1012E000A21BB30BE40BF50B661F771F881F991F1A
:1012F0001A9469F760957095809590959B01AC0163
:10130000BD01CF0108950E94AF09B7FF0895821B68
:10131000930B08950E94AF09A59F900DB49F900D67
:10132000A49F800D911D11240895AA1BBB1B51E1A0
:1013300007C0AA1FBB1FA617B70710F0A61BB70B45
:10134000881F991F5A95A9F780959095BC01CD01EA
:101350000895EE0FFF1F0590F491E02D0994A29FD0
:10136000B001B39FC001A39F700D811D1124911D79
:10137000B29F700D811D1124911D089581E090E0B0
:0A138000F8940C94C309F894FFCF11
:10138A00390563000000008B068B068B066706632F
:10139A0006600600000000F905B505B30567066397
:0613AA0006AC0160030027
:00000001FF
